:020000040800F2
:10000000680900209D010008A5010008A70100085B
:100010009D01000800E70000000325500001000DCD
:10002000000000000000000000000000A90100081E
:100030000000000000000000AB010008AD01000856
:10004000AF010008AF010008AF010008AF010008D0
:10005000AF010008AF010008AF010008AF010008C0
:10006000AF010008AF010008AF010008AF010008B0
:10007000AF010008AF010008AF010008AF010008A0
:10008000190C0008AF01000800000000AF010008D3
:10009000AF010008AF010008AF010008AF01000880
:1000A000AF010008AF010008AF010008B10C000863
:1000B000AF01000800000000AF01000800000000D0
:1000C00000F002F800F03EF80CA030C80838241800
:1000D0002D18A246671EAB4654465D46AC4201D180
:1000E00000F030F87E460F3E0FCCB6460126334274
:1000F00000D0FB1AA246AB4633431847400D000020
:10010000600D0000103A02D378C878C1FAD85207BF
:1001100001D330C830C101D504680C6070470000BD
:100120000023002400250026103A01D378C1FBD813
:10013000520700D330C100D50B6070471FB51FBDFB
:1001400010B510BD00F037F91146FFF7F7FF00F0CA
:10015000E7FD00F04FF903B4FFF7F2FF03BC00F036
:1001600055F9000070B505460C46164602E00FCC66
:100170000FC5103E102EFAD2082E02D303CC03C5B1
:10018000083E042E07D301CC01C5361F03E02178B9
:100190002970641C6D1C761EF9D270BD074880471B
:1001A00007480047FEE7FEE7FEE7FEE7FEE7FEE75B
:1001B00004480549054A064B70470000A50B000896
:1001C000C1000008680100206809002068030020C1
:1001D00068030020F8B5042A2CD3830712D00B78CB
:1001E000491C0370401C521E83070BD00B78491C1E
:1001F0000370401C521E830704D00B78491C037007
:10020000401C521E8B079B0F05D0C91ADF0020230C
:10021000DE1B08C90AE0FFF7A5FFF8BD1D4608C9A7
:10022000FD401C46B4402C4310C0121F042AF5D2D6
:10023000F308C91A521EF0D40B78491C0370401CF5
:10024000521EEAD40B78491C0370401C012AE4D4E6
:1002500009780170F8BD002203098B422CD3030AF0
:100260008B4211D300239C464EE003460B433CD403
:10027000002243088B4231D303098B421CD3030A6B
:100280008B4201D394463FE0C3098B4201D3CB019B
:10029000C01A524183098B4201D38B01C01A5241CB
:1002A00043098B4201D34B01C01A524103098B42CF
:1002B00001D30B01C01A5241C3088B4201D3CB00BA
:1002C000C01A524183088B4201D38B00C01A52419D
:1002D00043088B4201D34B00C01A5241411A00D24D
:1002E00001465241104670475DE0CA0F00D04942B6
:1002F000031000D34042534000229C4603098B4226
:100300002DD3030A8B4212D3FC22890112BA030AAD
:100310008B420CD3890192118B4208D3890192112F
:100320008B4204D389013AD0921100E08909C309B4
:100330008B4201D3CB01C01A524183098B4201D3B6
:100340008B01C01A524143098B4201D34B01C01AA1
:10035000524103098B4201D30B01C01A5241C30819
:100360008B4201D3CB00C01A524183088B4201D388
:100370008B00C01A5241D9D243088B4201D34B00A3
:10038000C01A5241411A00D20146634652415B10E5
:10039000104601D34042002B00D5494270476346C6
:1003A0005B1000D3404201B50020C046C04602BDEC
:1003B000704770477047754600F024F8AE46050058
:1003C00069465346C008C000854618B020B5FFF7FF
:1003D000EFFE60BC00274908B6460026C0C5C0C570
:1003E000C0C5C0C5C0C5C0C5C0C5C0C5403D490029
:1003F0008D46704710B50446C046C0462046FFF7FC
:10040000AAFE10BD004870470401002001491820D1
:10041000ABBEFEE7260002007047000030B5024682
:100420000B460C48002112E0555C684000240AE0AD
:10043000C507ED0F002D03D04010074D684000E0C8
:100440004010651CACB2082CF2DB4D1CA9B29942DD
:10045000EADB30BDFFFF000001A0000010B5002462
:100460001048006800280BD00E48006800F0CAFC55
:100470007D21C900884201D9012002E0002000E06E
:10048000002000280BD00849084800F0A7FA0849C6
:10049000084800F0A3FA0124002002490860204621
:1004A00010BD00000C00002000FB000000F8000060
:1004B00000FF000000FC000010B5464840692F21F5
:1004C00049040843434948610846C069022108437A
:1004D0004049C86108468069012108433D49886157
:1004E00000231A4619463C4800F056F900231A46E4
:1004F00007210920C00600F04FF900230122062140
:100500000920C00600F048F900231A4604213248A9
:1005100000F042F9FF22013201212F4800F0F6F8E5
:10052000FF22013206212C4800F0F0F8FF220132B0
:100530000F210920C00600F0E9F800220321264817
:1005400000F0E4F80122520200210920C00600F068
:10055000DDF80122520201210920C00600F0D6F880
:100560000122520202210920C00600F0CFF8012228
:10057000520203210920C00600F0C8F801225202ED
:1005800004210920C00600F0C1F801225202052111
:100590000920C00600F0BAF8012252020B210920FE
:1005A000C00600F0B3F8012252020C210920C00657
:1005B00000F0ACF8012252020521074800F0A6F82D
:1005C000012252020721044800F0A0F800F074F95B
:1005D00062B610BD001002400004004800B501469C
:1005E00000F05EF80D4800690D4A10400B4A10619A
:1005F0001046006902221043084A1061104641610A
:10060000006940221043054A106100F049F8034890
:10061000006902229043014A106100BD002002409F
:10062000C9DEFFFF034800698021084301490861D2
:10063000704700000020024000B5024600F030F88C
:100640000C4800690C4B18400A4B186118460069A9
:1006500001231843074B1861118000F021F8080CA2
:10066000508000F01DF80348006940084000014B2D
:10067000186100BD00200240C9DEFFFF0548006987
:1006800080210840002804D00348024948600348FC
:10069000486070470020024023016745AB89EFCDD9
:1006A00000BF0348C068C007C00F0028F9D17047D9
:1006B00000200240094B1870094A526A5218084B30
:1006C0009A631A46126904239A43054B1A611A4623
:1006D000D26804231A43024BDA60704732000020CC
:1006E000000400400246106901238B401840002896
:1006F00001D0012070470020FCE701228A4012044B
:100700008261704701228A4082617047F0B50C46D1
:1007100013460126A640354667000326BE403146F3
:1007200006688E43066010261E40002E03D04668E1
:100730002E43466002E04668AE43466082688A43C4
:10074000012676031E40002E03D016460E43324685
:1007500007E0012636031E40002E02D00D4E0E404B
:1007600032438260C6688E433246FF2601361E4001
:10077000002E03D0074E0E40324308E001267602D9
:100780001E40002E03D0034EF6430E403243C2609B
:10079000F0BD000055555555FFB50C460126A64045
:1007A000354667000326BE40314606688E43204F1B
:1007B0000F403E43066010261E40002E03D04668C0
:1007C0002E43466002E04668AE43466082688A4334
:1007D000012676031E40002E03D016460E433246F5
:1007E00007E0012636031E40002E02D0104E0E40B8
:1007F00032438260C6688E433246FF2601361E4071
:10080000002E03D00A4E0E40324308E00126760245
:100810001E40002E03D0064EF6430E403243C26007
:10082000029E002E01D0856101E02E048661FFBD8D
:1008300055555555022801DB811EC8B2072800DD39
:1008400007200449044A11601146486000211160E4
:1008500070470000555500000030004030B50B4691
:10086000012B06D0022B0ED0032B12D0042B20D14B
:1008700019E08469FF252D022C4021460C461443C3
:100880002146816115E08469E1B21402214381614E
:100890000FE0C469FF252D022C4021460C4614436D
:1008A0002146C16105E0C469E1B214022143C1617E
:1008B00000BF00BF30BD000008B500F01BF97D216E
:1008C000890112480068FFF7C6FC401E1049086005
:1008D000022000231A460F2100900E4800F01EF857
:1008E000002201210B48FFF7B9FF094800680949B8
:1008F000486300204862102001218140064A1160AF
:1009000000BF044800F0A2F808BD00002400002049
:10091000140000200004004000E100E030B5039C1A
:10092000002505604360C46081626D1EC56202607F
:100930000125456130BD0000F8B507460624214673
:100940001E48FFF76BFD054621461D48FFF766FD73
:1009500006461C480088854212D1AE4203D11A488F
:100960000088A84206D001201849088000F052FAF9
:1009700017490860062211491648FFF72BFC1CE0B6
:100980001148008886420CD106220D491148FFF714
:1009900021FC02200D49088000F03CFA0C49086057
:1009A0000BE006220C490B48FFF714FC0320074913
:1009B000088000F02FFA06490860F8BD00F8000032
:1009C00000FC000000FB000000FF00001000002001
:1009D0000C00002004000020240E0008FEB5044690
:1009E0000D4606211548FFF719FD00900020144917
:1009F00008602646FFF742FEFFF752FE3046FFF73B
:100A0000EDFDFFF74DFE022001900C4F09E002CFF3
:100A10003046FFF711FE361DFFF742FE09480A492E
:100A200008600198411E01910028F0D128460099E4
:100A3000FFF702FEFFF7F6FDFEBD000004000020F8
:100A40000C000020AAAA000000300040016801222A
:100A500011430160704700002348006801210843EA
:100A60002149086000BF2048006802210840002892
:100A7000F9D01D4800681D4908401B490860002046
:100A800048600120C86200200863084640680121D0
:100A9000C904084314494860084600680121090652
:100AA00008431149086000BF0F480068002801D1C1
:100AB000012000E000200121490608400028F3D170
:100AC00010200B4908600848406802210843064985
:100AD000486000BF044840680C2108400828F9D14C
:100AE000002001498860704700100240F8FF0000B4
:100AF00000200240F8B500250024002600272448E5
:100B000040680C2108400546002D04D0042D06D075
:100B1000082D2AD107E01F481F49086029E01F4817
:100B20001D49086025E01A4840680F2189040840E3
:100B30000446174840680121090408400646A00CF5
:100B4000841C002E04D115486043134908600BE053
:100B50000F48C06A0007000F471C39460F48FFF7CF
:100B60007AFB60430C49086003E00A480A490860C0
:100B700000BF00BF06484068F0210840000908494E
:100B80000D5C05480068E84003490860F8BD0000B6
:100B90000010024000127A002400002000093D00ED
:100BA0002A0E000819480068012108431749086007
:100BB00008464068164908401449486008460068DD
:100BC0001449084011490860084600680121890459
:100BD00088430E490860084640683F21090488435D
:100BE0000A4948600846C06A00090001C862084610
:100BF000006BFF2154318843044908630846406B69
:100C000040084000486300208860704700100240A0
:100C10000CB8FFF8FFFFF6FE10B51E480069022170
:100C20000840002835D01B48C0680840002830D054
:100C3000194801780068401C174A1060C807C00FA7
:100C4000002804D015480068401C14490860144866
:100C5000104908610846406B1249096840180D495F
:100C600048631148007800280FD00B480078C0076F
:100C7000C00F002804D004210C48FFF743FD08E012
:100C800004210A48FFF739FD03E004210748FFF774
:100C900034FD10BD000400401C000020180000209E
:100CA000FDFF000014000020200000200004004888
:100CB00010B5114800684021084000280FD00E48A8
:100CC000C069084000280AD0402211460A4800F0B6
:100CD00019F80A48006841080320FFF7EBFC0648B2
:100CE000C0690007000F002805D02F2002490862C4
:100CF00001200349087010BD003801402C0000207D
:100D000028000020036A0B430362036893430360D7
:100D10007047000001490868704700001800002073
:100D200000BF00BFFFF798FE0420FFF783FDFFF729
:100D3000C3FB0020FFF700FE04E02C482C490860AC
:100D4000FFF78CFB2B4800680028F6D100BFFFF7A7
:100D500085FB03212848FFF7C5FC002821D0FFF7B9
:100D6000D9FF044600F04EF86428F0D923480088E3
:100D7000642812D021480088401C00B21F49088016
:100D8000FFF7C8FF044600F03DF800B21B490022FF
:100D90008A5E51001A4A5052D9E70020174908804C
:100DA000D5E7FFF7B7FF044600F02CF87D210901D5
:100DB0008842CCD211480088642812D00F4800889D
:100DC000401C00B20D490880FFF7A4FF044600F064
:100DD00019F800B2094900228A5E5100084A5052AF
:100DE000B5E7002005490880B1E70000AAAA000085
:100DF000003000400C0000200004004800000020EB
:100E00003C000020014602480268501A704700006A
:100E10001800002002490868002800D1401E7047D1
:100E20001800002001007B00C80100000000000045
:100E30000000010203040607080900005C0E000818
:100E4000000000203C00000004010008980E00088B
:100E50003C0000202C0900002001000800000000D8
:100E60000000000000000000000000000000000082
:100E70000000000000000000000000000000000072
:100E8000006CDC0200000000000000000000000018
:080E900000000000000000005A
:04000005080000C12E
:00000001FF
